:020000040800F2
:10000000C0070020DD010008F71A0008EF1A0008F9
:10001000F31A0008590D0008011D00080000000037
:10002000000000000000000000000000251B000888
:100030005D0D000800000000F91A0008271B0008E9
:10004000F7010008F7010008F7010008F7010008B0
:10005000F7010008F7010008F7010008F7010008A0
:10006000F7010008F7010008F7010008F701000890
:10007000F7010008F7010008F7010008F701000880
:10008000F7010008F7010008F7010008F701000870
:10009000F7010008F7010008F7010008F701000860
:1000A000F7010008F7010008F7010008F701000850
:1000B000F7010008F7010008F7010008F701000840
:1000C000F7010008F7010008F7010008F701000830
:1000D000F7010008F7010008F7010008F701000820
:1000E000F7010008F7010008F7010008F701000810
:1000F000F7010008F7010008F7010008F701000800
:10010000F7010008F7010008F7010008F7010008EF
:10011000F7010008F7010008F7010008F7010008DF
:10012000F7010008F7010008F7010008F7010008CF
:1001300000F002F800F042F80AA090E8000C8244B7
:100140008344AAF10107DA4501D100F037F8AFF294
:10015000090EBAE80F0013F0010F18BFFB1A43F0A5
:1001600001031847EC1D00000C1E0000103A24BFCC
:1001700078C878C1FAD8520724BF30C830C144BF0C
:1001800004680C607047000000230024002500264E
:10019000103A28BF78C1FBD8520728BF30C148BFEA
:1001A0000B6070471FB59DE8030000F0A7FB00F04F
:1001B00099F81FBD10B500F0FEF810BD00F061F910
:1001C0001146FFF7EFFF01F04BFE00F065FB03B4B3
:1001D000FFF7F0FF03BC00F023FD00000948804753
:1001E00009480047FEE7FEE7FEE7FEE7FEE7FEE719
:1001F000FEE7FEE7FEE7FEE704480549054A064B31
:1002000070470000951B000831010008C001002064
:10021000C0070020C0030020C00300200FB4044921
:1002200010B503AA029800F02FF810BC5DF814FB7B
:10023000B40000204FF0000200B5134694469646E5
:10024000203922BFA0E80C50A0E80C50B1F12001E9
:10025000BFF4F7AF090728BFA0E80C5048BF0CC097
:100260005DF804EB890028BF40F8042B08BF7047F5
:1002700048BF20F8022B11F0804F18BF00F8012B67
:100280007047704770477047074B70B50D467B4409
:1002900000F011F80446284600F020F810B14FF0A5
:1002A000FF3070BD204670BD571B000001694A1C1D
:1002B00002610878704700B58FB0CDE901310021A7
:1002C000059105497944CDE903101146684600F0CF
:1002D00024F90FB000BD0000E5FFFFFF007B00F038
:1002E0008000704710B542485421FFF7A3FF4148F2
:1002F0005421FFF79FFF40485421FFF79BFF3F49E0
:100300003B483C4A3F4B08603D490A603A49196006
:10031000531C0365481C1065012008653B48344A9E
:1003200039A1784400F01CFA20B9384878440A38DA
:1003300000F0BBFA37482F4A35A1784400F010FA94
:1003400020B9344878440A3800F0AFFA32482A4AD3
:100350002FA1784400F004FA20B92F4878440A38D5
:1003600000F0A3FA40232248DC000021224600F0DE
:10037000D3F920B125487844543800F096FA1D4846
:1003800022464023002100F0C7F920B121487844DB
:10039000543800F08AFA184822461023002100F051
:1003A000BBF9002806D01C487844BDE810405638F8
:1003B00000F07BBA10BD104870B5006D20F001044C
:1003C0000B4800F043FA0B4800F040FA0A4800F0EE
:1003D0003DFA09E0206D20F00105204600F036FAD4
:1003E000204600F073F82C46002CF3D170BD0000BD
:1003F00060000020B400002008010020140000204C
:10040000180000201C000020720000001E1C0000CC
:10041000770000000A1C0000F61B00000EB5CDE9B5
:10042000000100F0DDFB029069460120ABBE0EBD6D
:1004300008B5694600900220ABBE08BD1FB58DE827
:10044000070069460520ABBE04B010BD1FB58DE89E
:100450000F0069460620ABBEF6E708B56946009076
:100460000920ABBE08BD1CB5CDE9000169460A20D4
:10047000ABBE1CBD704708B5694600900C20ABBEF2
:1004800008BD754600F018FAAE46050069465346A9
:1004900020F00700854618B020B5FFF7ADFEBDE897
:1004A00020404FF000064FF000074FF000084FF0DB
:1004B000000B21F00701AC46ACE8C009ACE8C0096C
:1004C000ACE8C009ACE8C0098D46704770B5044679
:1004D000051F00F0F7F90068002C14BF446870BDD8
:1004E000002C18BFAC423CBF20466468F8D30168BA
:1004F0000A18AA4218BF456003D12A68054611446C
:10050000016028684119A1421CBF6C6070BD616820
:10051000696021680844286070BD2DE9F0410646F5
:100520000024D6E90170F5688046304603E0414674
:10053000B847641C3046A8470028F8D12046BDE8DB
:10054000F0812DE9F04705460C46C86820F42010DC
:1005500040F48000C860800602D5084600F0FFFA2B
:10056000E06841F282014FF0FF390140022903D0D7
:10057000204600F09DFAB5E000F42041B1F5004FAF
:100580000FD1C00306D56168E06A884200D80846EA
:10059000606006E02069E06260606069FFF76BFF01
:1005A000A061A0680022EEB200280DDAE1688B0598
:1005B0000AD4C043A06041F490302260E0606068DB
:1005C000411C61600670A5E0E0689046226040F43E
:1005D0000050E060206968BB6069FFF73EFF0127BB
:1005E00004F12405A0B1A08910F4407F08D0E0698F
:1005F00000F0B3F9206118B1E06840F4006016E043
:10060000E7612561E06820F4407040F480600EE00E
:10061000E06900F0A2F900282061F1D0E06840F420
:10062000006010F4407FE06002D140F48070E06030
:1006300020696060E06825696FF0010AC1051FD577
:100640006168E06A884200D80846411B04D022460F
:10065000284600F037FAF0BBE068010203D5E562F6
:10066000C4E9015854E0691CE1626160E16940F449
:100670008030491EC4E9021030462E70BDE8F08774
:10068000010202D500F480320AE06068411C61601A
:100690000670E0680A2E40F48030E06006D0002248
:1006A000E16A6068814203D90B4602E00122F7E764
:1006B0000346A7895B1B7F0503D4E7699F4200DDE2
:1006C000E2B1814200D80146E5620F1AC4E901583F
:1006D000002B09DD00E005E022461946284600F01F
:1006E000F1F908B14846C9E747B1A069E56265601C
:1006F000C01BA061E06840F01000E060E06800020C
:1007000008D56168A069E562491B08446560A0617D
:100710005046B3E73046B1E770B5C468A50713D0BB
:10072000650211D4B2F5807F09D0B2F5007F06D002
:10073000B2F5806F08D1012300F1240106E05D1EAF
:100740006FF07F46B54201D3012070BD0161C361E6
:10075000416024F470611143C160002070BD00004D
:100760002DE9F0410C4607461646104600F06EF89B
:100770002078611C61280AD0722802D077283CD1E9
:1007800002E00125002405E00225042402E00824FB
:1007900048F2020511F8010B2B2806D0622809D077
:1007A00011F8010C74280AD00BE045F0030544F061
:1007B0000204EFE745F0040544F00104EAE744F0E1
:1007C000100438462146FFF729FE411C15D00021B0
:1007D000316171604FF40071F560F1617061200763
:1007E00004D530460222002100F0E6F8306D40F0DA
:1007F000010030653046BDE8F0810020FBE72DE9BF
:10080000F0410D460646104C206DC10704D041084A
:1008100004D020F00104F7E722460EE0542000F057
:100820009CF807000ED0206D47F0010108435421C9
:1008300020653846FFF7FEFC3A4629463046BDE8BB
:10084000F0418DE70020D6E7600000202DE9F04759
:1008500004464FF000094FF0FF37C568D4E904861D
:10086000A80707D0204600F057F93046FFF7E0FD13
:10087000002802DA3846BDE8F087280502D5404650
:10088000FFF724FE4C212046FFF7D4FC206D20F01A
:10089000010020654846EEE710B50446AFF300803E
:1008A0002046BDE81040FFF792BC10B500F07EF97D
:1008B000BDE8104000F074B9004870475C010020AA
:1008C000704700000048704764010020704770477F
:1008D0007047704738B504460A4600206946AFF3B2
:1008E0000080002808BF38BD02460099204600F06D
:1008F000A4F9012038BD012000F0F3B9F8B5AFF339
:100900000080054600200C46102000BF0646A819AE
:10091000A0420DD9324669460020AFF3008007009F
:1009200008BF00F0DEF90098A04218BF0546C419C0
:10093000FFF7C8FF05600746F01D20F007004619C5
:10094000284600F073F9B44208BFF8BDA21B314637
:100950003868BDE8F84000F070B970B50646FFF79A
:10096000B1FF056806F10B0020F00704B4429CBFFC
:10097000002070BD2B466A68BAB11068A04210D33F
:1009800004F1080188423CBF5068586007D35168A1
:10099000101941601168091B016058601460101D36
:1009A00070BD13465268002AE7D121462846FFF75A
:1009B00091FF0028DED170BD2DE9F04104461646B6
:1009C0000D464769007B80072ED03846FFF745FD6E
:1009D00050BB3EB3012E02D0022E25D104E02046AA
:1009E00000F045F905441DE03846FFF744FDE16895
:1009F000002841F01001E16005DA204600F058F8C7
:100A00000120BDE8F081C9030BD56268E16A91421B
:100A100000D81146A26911442269891A814200DD79
:100A200008460544002D01DA0220EAE7E16A606821
:100A3000E268814206D29103E06203D522F40031DC
:100A400041F01002A6690027AE4213DCE16A814240
:100A500001D90B4600E0034603EB060C2369ACEB1F
:100A6000030CAC4506DD814201D98C4600E084468A
:100A70009C4505D1A760276042F02000A5620DE0EB
:100A8000AD1BE669AE1B8142A66000D90846C01ABC
:100A9000281A20605819606022F02000034908409D
:100AA000E060002084F84870ABE70000BFCFD7FFBC
:100AB000C16821F4001141F08001C1600021816012
:100AC000016070472DE9F047814614460E464FF00D
:100AD000FF383248D5685769054209D03846A169C0
:100AE000FFF7C1FC002811DB2C48C0430540E5603E
:100AF0002B46324649463846FFF7A0FCA16920F054
:100B00000042B21A11440028A16103D02046FFF729
:100B1000CFFF4046BDE8F08770B504460569C06A5E
:100B20006168884200D80846E16821F42011E1603C
:100B3000C90312D5A84208D02246411B2846FFF718
:100B4000C1FF10B14FF0FF3070BD0020E562C4E975
:100B50000150E06820F48030E060002070BD10B5E6
:100B60000446C06820F02000E060A16AA0698842C5
:100B70000DD02046FFF7D0FFE06820F4405040F051
:100B80001000E060A06AA0612069E062606044F249
:100B90004001E0688843E06010BD000010000200E2
:100BA000002801D000F03CB87047000010B50146A5
:100BB00002A000F07DF8012010BD0000534947520B
:100BC000545245443A2052656469726563743A2010
:100BD00063616E2774206F70656E3A20000000001C
:100BE00010B5431C02E010F8011B71B18107FAD166
:100BF0004FF0013202C88C1A8C4314EAC211F9D0AA
:100C0000C01A0A0603D0C01E10BDC01A10BD0A04C7
:100C100001D0801E10BD0902FCD0401E10BD000096
:100C200001491820ABBEFEE726000200002101604A
:100C3000C0E90110704710207047034640688C4699
:100C4000002818BF88423CBF03464068F8D31868A4
:100C50001844884207D00CF1030020F00700001D63
:100C6000411A521A0146081D0A60FFF72FBC10B541
:100C70000146C268900703D0900607D5886A0AE04B
:100C800000F03EF801210160881E10BD8B694868A4
:100C900018440B69C01A91F848301BB191F84910FB
:100CA000401A10BD1103FCD50028FADD401E10BD0E
:100CB00070B505460C460A2000E06D1C00F018F8DF
:100CC00035B128780028F8D102E0641C00F010F853
:100CD00014B120780028F8D1BDE870400A2000F057
:100CE00007B810B500F010F8BDE81040FFF758BF86
:100CF00008B569468DF800000320ABBE08BD0000B2
:100D0000004870475C01002010B5012805D0002183
:100D100003A0FFF7CDFF012010BD09A1F8E70000F7
:100D200053494752544D454D3A204F7574206F66D4
:100D30002068656170206D656D6F7279000000003C
:100D40003A2048656170206D656D6F727920636F20
:100D5000727275707465640000BFFEE77047000032
:100D60002DE9F847024600239C467BE14FF001083D
:100D700008FA03F4D1F8008008EA0400A0427DD10B
:100D8000DFF8F4A2D1F80480A8EB0A09D0453AD0E4
:100D900014DCB8F1030F50D009DCB8F1000F31D0EA
:100DA000B8F1010F1CD0B8F1020F49D120E0B8F121
:100DB000110F18D0B8F1120F42D11EE0B9F5881FFB
:100DC00025D006DCB9F5803F20D0B9F5801F37D19A
:100DD0001AE0B9F5001F18D0B9F5041F30D117E09B
:100DE000D1F80CC02DE0D1F80C8008F1040C28E0FB
:100DF000D1F80C8008F1080C23E0D1F80C8008F140
:100E00000C0C1EE000BF00BF00BF00BF00BF00BF52
:100E1000D1F80880B8F1000F02D14FF0040C0BE0BC
:100E2000D1F80880B8F1010F03D14FF0080C14611C
:100E300002E04FF0080C546103E04FF0000C00E0BA
:100E400000BF00BFFF2801D8904601E002F104086E
:100E50004646FF2802D84FEA830803E0A3F10808BA
:100E60004FEA88084746D6F800804FF00F0909FA84
:100E700007F928EA09080CFA07F900E07AE048EADD
:100E80000908C6F80080D1F8048008F08058B8F14D
:100E9000805F6FD100BFDFF8E481D8F8188048F098
:100EA0000108DFF8D891C9F81880C846D8F818802A
:100EB00008F00108CDF8008000BF00BF4FEAB93844
:100EC0004FEA930958F829504FEA83784FEA187986
:100ED0004FF00F0808FA09F825EA0805DFF8A081A5
:100EE000424502D14FF0000824E0DFF898814245E6
:100EF00002D14FF001081DE0DFF88C81424502D19C
:100F00004FF0020816E0DFF88481424502D14FF02D
:100F100003080FE0DFF87881424502D14FF0040862
:100F200008E0DFF87081424502D14FF0050801E08A
:100F30004FF006084FEA83794FEA197908FA09F861
:100F400048EA0505DFF850814FEA930948F829502F
:100F5000D1F8048008F48038B8F5803F0BD1DFF871
:100F60003C81D8F8008048EA0008DFF83091C9F8E1
:100F700000800AE075E0DFF82481D8F8008028EAD4
:100F80000008DFF81891C9F80080D1F8048008F44F
:100F90000038B8F5003F0ED1DFF8008108F10408F1
:100FA000D8F8008048EA0008DFF8F09009F1040959
:100FB000C9F800800DE0DFF8E48008F10408D8F8F3
:100FC000008028EA0008DFF8D49009F10409C9F884
:100FD0000080D1F8048008F48018B8F5801F0ED185
:100FE000DFF8B88008F10808D8F8008048EA00085F
:100FF000DFF8A89009F10809C9F800800DE0DFF8D2
:101000009C8008F10808D8F8008028EA0008DFF87A
:101010008C9009F10809C9F80080D1F8048008F41F
:101020000018B8F5001F0ED1DFF8708008F10C0829
:10103000D8F8008048EA0008DFF8609009F10C0950
:10104000C9F800800DE0DFF8548008F10C08D8F8EA
:10105000008028EA0008DFF8449009F10C09C9F87B
:1010600000805B1CD1F8008028FA03F8B8F1000F6B
:101070007FF47CAEBDE8F88700001110001002403C
:1010800000080140000C0140001001400014014024
:1010900000180140001C014008000140000401400C
:1010A0000AB1016101E00B04036170470148006867
:1010B00070470000080000200348006803490978D1
:1010C0000844014908607047080000201000002013
:1010D00010B50848006840F0100006490860052077
:1010E00000F070F80F2000F007F800F02BF8002057
:1010F00010BD00000020024070B504460E48007884
:101100004FF47A71B1FBF0F00C490968B1FBF0F5CE
:10111000284600F0E7FB08B1012070BD102C07D273
:1011200000222146501E00F00EF80548046001E040
:101130000120F2E70020F0E710000020000000206E
:101140000C00002070472DE9F05F80460D461646E2
:10115000002700F0D7FD074639462A46334601F0FE
:101160000700C0F1070ABAF1040F02D94FF0040AD0
:1011700001E0C0F1070AD14600F1040ABAF1070FF5
:1011800002D24FF0000A01E0A0F1030AD4464FF06A
:10119000010A0AFA09FAAAF1010A0AEA020A0AFA93
:1011A0000CFA4FF0010B0BFA0CFBABF1010B0BEA45
:1011B000030B4AEA0B042146404600F0ABFDBDE8B4
:1011C000F09F000000BF00F00702064B19684FF6C1
:1011D000FF031940044B0B4343EA0221014B196002
:1011E00000BF70470CED00E00000FA0570B5044642
:1011F0000D460CB9012070BD5A48006800F0070088
:10120000A8420ED25748006820F0070028435549ED
:1012100008600846006800F00700A84201D00120DD
:10122000E9E7207800F0020002281DD1207800F0C4
:101230000400042805D14C48406840F4E0604A4965
:101240004860207800F00800082805D1464840682A
:1012500040F46050444948604348406820F0F00042
:10126000A168084340494860207800F0010078B345
:101270006068012806D13C48006800F4003090B94D
:101280000120B8E76068022806D13748006800F0FE
:10129000007040B90120AEE73348006800F002005A
:1012A00008B90120A7E73048406820F003006168D2
:1012B00008432D494860FFF7F9FE064609E0FFF7AD
:1012C000F5FE801B41F28831884202D9032092E763
:1012D00007E02548406800F00C006168B0EB810F22
:1012E000EDD12048006800F00700A8420ED91D4843
:1012F000006820F0070028431A4908600846006883
:1013000000F00700A84201D0012074E7207800F027
:101310000400042807D11448406820F4E060E16824
:10132000084311494860207800F00800082808D1D7
:101330000D48406820F46050216940EAC1000A4924
:10134000486000F03FF808494968C1F30311074AB3
:10135000515CC8400649086006480068FFF7CCFEAB
:10136000002048E700200240001002402C1F000827
:10137000000000200C0000200148006870470000B9
:101380000000002000B5FFF7F7FF04494968C1F3EA
:101390000221034A515CC84000BD00000010024019
:1013A0003C1F000800B5FFF7E7FF04494968C1F397
:1013B000C221034A515CC84000BD00000010024039
:1013C0003C1F0008F0B585B00FF26C0C9CE8E010F3
:1013D00001A8A0E8E0101CA52D68009500210022BE
:1013E000002300240020194D696801F00C05F5B1B7
:1013F000042D02D0082D19D101E0154819E001ADE6
:10140000C1F38346AC5D01F4803555B10F4D6D6875
:10141000C5F340451DF805200D4D6543B5FBF2F3BE
:1014200002E00C4D04FB05F3184602E000BF08483B
:1014300000BF00BF05B0F0BD0203040506070809A0
:101440000A0B0C0D0E0F10100102000000100240DC
:1014500000127A0000093D00F8B504460CB90120DD
:10146000F8BD207800F00100002878D0F8484068E6
:1014700000F00C0004280CD0F548406800F00C0087
:10148000082811D1F248406800F48030B0F5803F60
:101490000AD1EF48006800F4003000285FD060688F
:1014A00000285CD10120DBE700BF6068B0F5803F19
:1014B00006D1E748006840F48030E549086028E03C
:1014C000606858B9E248006820F48030E04908605C
:1014D0000846006820F4802008601AE06068B0F5D3
:1014E000A02F0BD1DA48006840F48020D84908606A
:1014F0000846006840F4803008600AE0D44800687C
:1015000020F48030D24908600846006820F480202A
:10151000086000BF606888B1FFF7C8FD054606E0B7
:10152000FFF7C4FD401B642801D9032098E7C84891
:10153000006800F400300028F2D010E0FFF7B6FD9C
:10154000054606E0FFF7B2FD401B642801D90320E1
:1015500086E7BF48006800F400300028F2D1207808
:1015600000F00200022857D1B948406800F00C0092
:1015700050B1B748406800F00C00082818D1B448B2
:10158000406800F4803098B9B148006800F002006B
:1015900020B12069012801D0012061E7AC48006832
:1015A00020F0F800616940EAC100A949086033E011
:1015B0002069E8B10120A7490860FFF777FD0546DB
:1015C00006E0FFF773FD401B022801D9032047E71F
:1015D0009F48006800F002000028F2D09C48006894
:1015E00020F0F800616940EAC1009949086013E001
:1015F000002098490860FFF759FD054606E0FFF70F
:1016000055FD401B022801D9032029E790480068B6
:1016100000F002000028F2D1207800F0080008282D
:101620002DD1A069B8B101208B490860FFF73EFDBC
:10163000054606E0FFF73AFD401B022801D90320CA
:101640000EE78348406A00F002000028F2D0012033
:1016500000F054FA13E000207F490860FFF726FDF0
:10166000054606E0FFF722FD401B022801D90320B2
:10167000F6E67748406A00F002000028F2D12078B0
:1016800000F00400042873D100277148C06900F0FD
:10169000805070B900BF6E48C06940F080506C49FE
:1016A000C8610846C06900F08050009000BF00BFCC
:1016B00001276A48006800F48070B0B96748006884
:1016C00040F4807065490860FFF7F0FC054606E0CD
:1016D000FFF7ECFC401B642801D90320C0E65F48FB
:1016E000006800F480700028F2D000BFE068012894
:1016F00006D15748006A40F001005549086227E0CA
:10170000E06858B95248006A20F001005049086268
:101710000846006A20F00400086219E0E068052825
:101720000BD14B48006A40F0040049490862084662
:10173000006A40F0010008620AE04548006A20F0B3
:101740000100434908620846006A20F0040008626C
:1017500000BFE068A0B1FFF7A9FC054609E0FFF76C
:10176000A5FC401B41F28831884202D9032077E66C
:1017700022E03748006A00F002000028EFD012E0B3
:10178000FFF794FC054608E0FFF790FC401B41F290
:101790008831884201D9032062E62D48006A00F0B2
:1017A00002000028F0D1012F05D12948C06920F09E
:1017B00080502749C86100BFE069C8B32448406829
:1017C00000F00C00082860D0E069022848D1002011
:1017D00020490866FFF76AFC054606E0FFF766FC4D
:1017E000401B022801D903203AE61948006800F09E
:1017F00000700028F2D1206AB0F5803F07D114486C
:10180000406820F40030A168084311494860D4E9D9
:10181000080108430E49496821F4741108430C4932
:10182000486001200B490866FFF740FC054607E0C9
:101830003DE0FFF73BFC401B022801D903200FE6E7
:101840000348006800F000700028F2D02FE000008C
:1018500000100240000042428004424200700040FA
:10186000002014490866FFF721FC054606E0FFF753
:101870001DFC401B022801D90320F1E50E48006839
:1018800000F000700028F2D111E0E069012800D1D9
:10189000E6E50948466806F48031206A814204D1B1
:1018A00006F47011606A814201D00120D8E5002061
:1018B000D6E500000000424200100240042808D192
:1018C0004FF0E021096941F004014FF0E02211617D
:1018D00007E04FF0E021096921F004014FF0E02218
:1018E0001161704770B504462546681EB0F1807FCF
:1018F00001D301200FE0681E4FF0E02148610F2165
:101900004FF0FF3000F006FA00204FF0E021886130
:1019100007200861002070BD10B504460CB90120F5
:1019200010BDA06900B100E000BF94F8390028B9EB
:10193000002084F83800204600F028F8242084F89D
:1019400039002068C06820F400502168C860204633
:1019500000F022F92068006920F4904021680861B5
:101960002068406920F02A00216848612068C0682A
:1019700040F400502168C8600020E063202084F813
:10198000390084F83A000020CAE7000010B586B09C
:101990000446002002900390049005901C492068A2
:1019A000884233D100BF1B48806940F48040194908
:1019B00088610846806900F48040019000BF00BF44
:1019C00000BF0846806940F00400886108468069CD
:1019D00000F00400019000BF00BF481502900220F3
:1019E0000390002004900320059002A90A48FFF705
:1019F000B7F94FF48060029000200390012004901A
:101A00000320059002A90448FFF7AAF906B010BD0B
:101A10000038014000100240000801402DE9F84F55
:101A200004460E46174699464FF0000A94F83900CE
:101A300020285AD106B117B90120BDE8F88F00BFA0
:101A400094F83800012801D10220F6E7012084F83B
:101A5000380000BF0020E063212084F83900FFF740
:101A600025FB8246A784E784A068B0F5805F04D197
:101A7000206910B90025B04602E035464FF0000855
:101A800000BF002084F8380000BF1BE0534600224E
:101A900080212046CDF8009000F0FCF808B103202A
:101AA000CBE745B9B8F80000C0F3080021684860EA
:101AB00008F1020803E02878216848606D1CE08C7A
:101AC000401EE084E08C0028E0D1534600224021F3
:101AD0002046CDF8009000F0DDF808B10320ACE717
:101AE000202084F839000020A7E70220A5E700BFE6
:101AF000FEE700BFFEE770477047000008B50849E1
:101B00000968C9084FF47A72B1FBF2F141430091C0
:101B100000BF00BF00994A1E00920029F9D108BDFC
:101B200000000020704710B5FFF7C6FA10BD00B5E1
:101B30008FB0282105A8FEF77DFB14216846FEF72B
:101B400079FB0120059000040690002007900120F9
:101B5000099002200C90C1030D914FF4E0110E91F9
:101B600005A8FFF779FC08B100BFFEE70F20009041
:101B700002200190002002904FF48060039000202A
:101B8000049002216846FFF731FB08B100BFFEE771
:101B90000FB000BD7047000070B5044621680969A8
:101BA00021F44051E2681143226811612269A16861
:101BB0001143626941EA02052168C96841F20C6279
:101BC000914329432268D1602168496921F4407119
:101BD000A2691143226851612D4A2168914202D1C4
:101BE000FFF7E0FB01E0FFF7CDFB00EBC00101EBED
:101BF000001162689200B1FBF2F100EBC00202EB4F
:101C0000001263689B00B2FBF3F26423B2FBF3F2B1
:101C100002EBC20303EB0212A1EB8201322202EBC0
:101C200001116422B1FBF2F101F0F00100EBC002FE
:101C300002EB001263689B00B2FBF3F26423B2FB79
:101C4000F3F201EB021200EBC00101EB001163683B
:101C50009B00B1FBF3F100EBC00303EB00136668DC
:101C6000B600B3FBF6F36426B3FBF6F303EBC3064F
:101C700006EB0313A1EB8301322303EB0111642371
:101C8000B1FBF3F101F00F0111442268916070BDC6
:101C9000003801402DE9F04104460D4617469846AC
:101CA000069E21E0701CF8B12EB1FFF7FFF9A0EB02
:101CB0000800B04218D92068C06820F4D0702168AC
:101CC000C8602068406920F0010021684861202038
:101CD00084F8390084F83A0000BF002084F8380006
:101CE00000BF0320BDE8F081206800682840A842BA
:101CF00001D1012000E00020B842D3D00020F1E75C
:101D000000BFFEE702480068C0F3022070470000F1
:101D10000CED00E010B5002804DB0A07130E054A9D
:101D2000135406E00A07140E034A00F00F031B1FAA
:101D3000D45410BD00E400E018ED00E010B50446F6
:101D400000204FF0E0210861FFF7B8FD2046E117C1
:101D500004EB5171C1F3CF01014A118010BD0000A5
:101D60000400002070B504464FF47A7094FBF0F53F
:101D700094FBF0F100FB114603E0074800F00EF879
:101D80006D1E002DF9D12EB14FF47A7106FB01F0D2
:101D900000F004F870BD000040420F000146114AF7
:101DA00012884A434FF0E0235A6100229A611A4692
:101DB000126942F001021A6100BF4FF0E02210697F
:101DC00000F001021AB100F48032002AF5D04FF081
:101DD000E022126922F001024FF0E0231A61002292
:101DE0009A617047040000208A68002A01DCFEF72F
:101DF000A8BB521E8A604A68C0B2531C4B60107068
:101E00007047000000B585B000200190029003905B
:101E1000049000BF1048806940F010000E498861AE
:101E20000846806900F01000009000BF00BF4FF42A
:101E300000500190012002900020039002200490A5
:101E400001A90648FEF78CFF012251030348FFF762
:101E500027F905B000BD000000100240001001404D
:101E6000FFF736F9FFF763FE4820FFF767FFFFF73C
:101E7000C9FF00F035F84FF4E13000F01BF808A07E
:101E8000FEF7CCF90BE00A20084908704FF47A738A
:101E900001220748FFF7C2FD0A20FFF763FFF2E7C0
:101EA0003F3F3F3F3F3F3F3A0D0A00000700002001
:101EB0002000002010B5044607480849086008467D
:101EC000446000218160C160016181610C21416138
:101ED000FFF722FD10BD0000003801402000002067
:101EE00000B585B00020019002900390049000BFDF
:101EF0000C48806940F004000A49886108468069FE
:101F000000F00400009000BF00BF88150190002081
:101F100002900120039001A90348FEF721FF05B0BC
:101F200000BD000000100240000801400000000059
:101F30000000000001020304060708090000000079
:101F4000010203043A7474003A7474003A74740021
:101F5000701F000800000020200000006C01000835
:101F6000901F000820000020A00700008801000842
:101F70000024F40000000000000000001000000039
:101F80000100000000000000000000000000000050
:0400000508000131BD
:00000001FF
